:020000040800F2
:1000000060150120DD4F00087D0400088104000810
:1000100085040008890400088D0400080000000021
:100020000000000000000000000000009104000833
:100030009504000800000000990400089D040008D1
:10004000D94F0008D94F0008D94F0008D94F0008F0
:10005000D94F0008D94F0008F5050008C104000871
:10006000D94F0008D94F0008D94F0008C132000805
:10007000D94F0008D94F0008D94F0008D94F0008C0
:10008000D94F0008D94F0008D94F0008D94F0008B0
:10009000D94F0008D94F0008D94F0008D94F0008A0
:1000A000D94F0008D94F0008D94F0008D94F000890
:1000B00041060008D94F000805050008D94F00087F
:1000C000D94F0008D94F0008D94F0008D94F000870
:1000D000F1A50008D94F0008D94F0008D94F0008F2
:1000E000D94F0008D94F0008D94F0008D94F000850
:1000F000D94F0008D94F0008D94F00081532000821
:10010000D94F0008D94F0008D94F00086D330008B7
:10011000D94F0008D94F0008D94F0008D94F00081F
:10012000D94F0008D94F0008D94F0008D94F00080F
:10013000D94F0008D94F0008D94F0008D94F0008FF
:10014000D94F0008D94F0008D94F000845060008CC
:10015000D94F0008D94F0008D94F0008D94F0008DF
:10016000D94F0008D94F0008D94F0008D94F0008CF
:10017000D94F0008D94F0008D94F0008D94F0008BF
:10018000D94F0008D94F0008014B00201870704764
:10019000C0BC002038B50C4C6178054659B92178AF
:1001A00041B1284601F06CFC2846217804F01CFD82
:1001B0000023237038BD01F063FC6178284604F009
:1001C00013FD00236370EAE7E0BB0020F0B591F86F
:1001D0004330082B83B00C4606D0D4F880301B6C1B
:1001E0009847002003B0F0BD91F84530502BF4D172
:1001F00091F85230B1F854201B4D190694F85A105A
:100200004BBFEB70AB70AA80EA800A060646B4F8D2
:100210005C3025D4A970EB80304604F0A1FCE9786D
:100220006870304604F09CFCB5F806E094F8213084
:1002300094F820206978287002278DE880403046A5
:1002400004F048FC94F8213094F82020AC882978F8
:1002500000973046019404F03DFC002003B0F0BD4F
:10026000E970AB80A978D7E7E0BB0020F0B583B098
:100270000D46064604F04CFEB0B15C4C23780A2BC8
:1002800012D8DFE803F0161C32064F59636B717BFE
:100290001400304615F020FF002800F08E80012861
:1002A00000F09080022877D0012003B0F0BD042038
:1002B000FBE7304606F0A4FB01202070F5E70023A1
:1002C0002121FF2229756A753046EB822B836B83CF
:1002D00029461A4609F080F8002867D00328E4D19F
:1002E0000222092362702370DFE70023A121FE228E
:1002F000012729756A75EB822B8330466F833B4655
:100300003B4A294609F068F8002849D1394A137A4E
:1003100082F848301BB1384B1A78002A5ED003238C
:100320002370C2E7304615F00DFF0028B7D1324ADE
:10033000052350702370B8E7304615F051FF0028B0
:10034000ADD12D4A082350702370AEE7304615F02A
:100350008BFF0028A3D163782370A6E73046294697
:1003600006F06EFB0120A0E7D5F88030DB6B9847E4
:10037000C0B2F0B1012897D1062096E730466B79DC
:100380002946002207F00EF800288ED1194A63781A
:1003900082F84800237088E70A232370012084E74D
:1003A000032882D10923607023707EE70223237023
:1003B0007BE708232370012077E70F4A042350705E
:1003C000237072E70C4A53780133DBB2092B537068
:1003D000E2D8062301202370E07066E7D5F880207C
:1003E0001F70136C0190984701985EE7C0BC002015
:1003F000E8BB0020E0BB0020940D0020012802D0C3
:10040000022807D07047084A53780133DBB2092B22
:10041000537003D9054B0A221A707047034B06220A
:10042000D8701A70704700BF940D0020C0BC002027
:10043000044A05491368002B08BF0B461844106096
:1004400018467047980D0020600D01204FF0FF30D6
:10045000704700BF4FF0FF30704700BF4FF40053AC
:100460004B600020704700BF01207047002070479C
:100470000020704710467047FEE700BF704700BF7E
:10048000FEE700BFFEE700BFFEE700BFFEE700BFDC
:10049000704700BF704700BF704700BF08B509F044
:1004A00059FC054B1B78012B04D1044A13880133F6
:1004B0009BB2138008BD00BFD20D00209C0D002010
:1004C00008B502200EF006FA70B10C4A9378DBB240
:1004D000012B0AD00A4900200123087093700220E2
:1004E000BDE808400EF004BA08BD054800210370BD
:1004F00091700220BDE808400EF0FAB99C0D002072
:100500001000002030B5364B83B01B7800228DF8E8
:1005100007204BBB0221334814F052FB08B903B04B
:1005200030BD314C2F48022114F056FBE578EDB276
:10053000032D29D0E378042B30D0E378062B37D075
:10054000E378EBB1E378072B3CD0264814F09CFA13
:10055000264A03461188A3809BB2224813FA81F1F0
:1005600014F040F803B030BD0DF10700012239212D
:1005700005F0ECF9062227211D4805F0E7F9C9E747
:10058000032015F08BFFE0E7012015F0A3FF2846BC
:1005900015F092FF002015F08FFFD6E7002015F030
:1005A00099FF032015F088FF012015F085FFCCE7A7
:1005B000012015F081FF002015F07EFF032015F0CB
:1005C00089FFC2E7012015F077FF002015F074FFC6
:1005D000022015F071FF032015F06EFFB5E700BF94
:1005E000ECAA0020000800409C0D0020BA0000206A
:1005F00030EF002008B501200EF06CF948B10D4B2A
:100600001A78012A01D01A7842B10B4900220A70E7
:100610001A700120BDE808400EF06AB907490122AE
:1006200002201A700A6002F0FDFB0120BDE80840BC
:100630000EF05EB9D20D0020D84D0020F0BA002097
:1006400009F058B9014814F0D3BB00BFA8C9002075
:1006500008B5174B984212D0164B98421BD0164B38
:10066000984200D008BD01214FF4004005F028FC5D
:1006700000214FF40040BDE8084005F021BC0121F5
:100680004FF4805005F028FC00214FF48050BDE865
:10069000084005F021BC01214FF4804005F010FC1A
:1006A00000214FF48040BDE8084005F009BC00BFC0
:1006B0000030014000380040003C00400A884B8870
:1006C000F0B48F88CD880C894E8913433B432B436C
:1006D00023438D89CC890288098A33432B432343E2
:1006E00002F4415213439BB20380838B23F40063D3
:1006F0001B041B0C8383F0BC01827047838B23F4A3
:100700007B6323F00F031B0402221B0C2DE9F04135
:100710008F6883830284848B9742A4B24FD02A4B84
:100720008D889A68002D0CBF4FF0200C4FF0400CC4
:1007300012023FD4244E254AD6F884E0D6F88430FD
:10074000D6F80480CE88CEF3881EB6F5007FC3F3BA
:10075000027308F03F08B2FBF8F202FB0EF2B2FBA4
:10076000F3F20CBF120AB2FBFCF202EB820253005E
:10077000174AB3FBF7F305339BB2A2FB0323DB0855
:100780005F08BA1E03F00103FD2A94BF47EA032362
:100790000223B1F800E04F888A894EEA070141F44C
:1007A000006111430C43A4B233432C43038484837C
:1007B000BDE8F0819A6822F400029A60BAE73B46ED
:1007C0008D88CE88E5E700BF0038024000127A002D
:1007D000CDCCCCCC002307220282038043808380CF
:1007E000C380038143818381C38170470023022238
:1007F0008260036043608381704700BF038829B92A
:1008000023F040031B041B0C038070479BB243F092
:1008100040030380704700BF838B29B923F48063B2
:100820001B041B0C838370479BB243F48063838358
:10083000704700BF038823F400631B041B0C038074
:1008400003889BB219430180704700BFB1F5804F08
:10085000038805D023F480431B041B0C03807047DE
:100860009BB243F480430380704700BF4FF6FF63A1
:100870009942038804D09BB243F48073038070478D
:1008800023F480731B041B0C03807047838829B9F1
:1008900023F004031B041B0C838070479BB243F0BE
:1008A00004038380704700BF838829B923F01003B5
:1008B0001B041B0C838070479BB243F010038380A2
:1008C000704700BF828B4B8822F47B6222F00F02BC
:1008D00070B412048E880C888D89120C02218283D8
:1008E00033430184818B24F4007243F4006392B299
:1008F0002B43002A43EA01039BB20CBF4FF48072E2
:1009000000221343838370BC704700BF808980B28C
:10091000704700BF81817047038829B923F40053D1
:100920001B041B0C038070479BB243F400530380ED
:10093000704700BF03889BB243F480530380704725
:10094000012914BF008B808A80B27047008A80B270
:10095000704700BF83889BB21AB923EA01018180E6
:1009600070471943818070470123090903FA01F197
:10097000838889B29BB21AB923EA0101818070474A
:1009800019438180704700BF0389194214BF0120B9
:1009900000207047C94389B20181704710B4848830
:1009A000008901F00F03012280B202FA03F318401C
:1009B00006D00909A4B28A40144214BF01200020C5
:1009C00010BC704701F00F01012303FA01F1C94384
:1009D00089B20181704700BF08F0EEBD08B108F090
:1009E00039BE7047012910DD03460139002002E0BD
:1009F0000130814209D013F8012BFF2AF8D11A786F
:100A000002F0E002E02AF3D170474FF0FF30704768
:100A100018B1D0F8D037032B08D000230B604B60FF
:100A20008B60CB600B614B618B61704770B490F849
:100A3000D447D0F8B8670B4AD0F8BC57D0F8C007F5
:100A40000E6004EB440602EB46021026B2F90420C5
:100A50008C6105FB02F24D60CE600A6188604B61DB
:100A600070BC704758C8010848B3F8B50D46114628
:100A7000044602F071FD01301ED0D4F8D037032BAC
:100A80001AD194F8D4170F4AD4F8BC67D4F8C00729
:100A9000D4F8B8772F6001EB410402EB4402102434
:100AA000B2F90420A86006FB02F2A9612A616E6017
:100AB0006B61EC600020F8BD6FF00500F8BD6FF0D1
:100AC0000400704758C80108002800F00B822DE987
:100AD000F04F87B08946096802930746164602F030
:100AE0003BFDB0F10008C0F2F080D9F8001041449D
:100AF000C9F80010384602F027FE0028C0F22F8106
:100B00003368D9F8002008EB0001591A02EB000CF9
:100B1000C9F800C03160D7F8B837002B40D1D7F8FA
:100B2000B037002B3FD10123C7F8B0373168012916
:100B3000A2EB080E64461BDD01F1FF3A002202E041
:100B40000132524514D0234601341D78FF2DF7D1D0
:100B50005D7805F0E005E02DF2D19EF80040FF2C15
:100B600000F0B8800332891A012903F10304E3DCA1
:100B70004FF0FF33C7F8B437D7F8C417D7F8C837E2
:100B8000D7F8BC2703FB01F302FB03F2002A04DDC4
:100B900052000298002116F09BFD6FF0020096E0D3
:100BA000D7F8B03743B1D7F8B457384602F0C8FC8D
:100BB0002844C7F8CC073168109B002B00F0B580A3
:100BC000D7F8D837C7F8CC17002B6DD100296BDDCB
:100BD000C7F8DC173368D9F800805B1A4144C9F8BC
:100BE00000103360D7F8C437D7F8DC5700208342B1
:100BF0004FEAC50505906ADD07F5FC63824603935D
:100C0000B946D9F8BC37002B40F31081059CDDF8BC
:100C10000CB0002717E0AC4230DC0197CDF800A003
:100C200008F008F8002807F10107C6EBC006804469
:100C3000C0F22A81059CD9F8BC372644BB42A5EBFB
:100C4000060540F3F3802B46414605AA0197CDF8EF
:100C500000A048460AF0B4F9059E5BF8043B8646BE
:100C6000C4EBCE043444F0442D1BBEF1000FA3EBC3
:100C7000040405AA484641462346CCDAD9F8C817E9
:100C8000D9F8C437D9F8BC2703FB01F302FB03F200
:100C9000002A04DD52000298002116F019FD6FF0C1
:100CA000070007B0BDE8F08FD7F8C817D7F8C437EA
:100CB000D7F8BC2703FB01F302FB03F2002A04DD93
:100CC00052000298002116F003FD6FF0050007B0F6
:100CD000BDE8F08F5D789EF80140A5427FF442AFF9
:100CE0009EF802409D78654015F0FC0F7FF43AAF06
:100CF000A20748BF03F1FF33A3EB0C05002DC7F893
:100D0000B457FFF639AFA844D7F8C027D7F8C417AF
:100D1000D7F8C847404402FB00F3DB0004FB01F1B5
:100D200093FBF1F3C7F8B8373FE7D7F8CC378B42DE
:100D30002BDDD7F8C417D7F8C837D7F8BC2703FB83
:100D400001F302FB03F2002A04DD5200029810991D
:100D500016F0BEFC4FF0FF3007B0BDE8F08FD7F8BB
:100D6000C817D7F8C437D7F8BC2703FB01F302FB39
:100D700003F2002A04DD52000298002116F0A8FCBC
:100D80006FF0060007B0BDE8F08FD7F8DC17D7F892
:100D9000D82791421FDB891A07F11C0841444046BD
:100DA00016F032FCD7F8D807D7F8CC27D9F80010BE
:100DB000404416F08FFBD7F8CC17D7F8D837D9F8BE
:100DC00000200B44C7F8DC3733680A445B1AC9F8C3
:100DD0000020336006E707F11C001A460844D9F8E2
:100DE000001016F077FBD7F8CC17D7F8DC37D9F816
:100DF00000200B44C7F8DC3733680A445B1AC9F893
:100E000000203360D7F8C417D7F8C837D7F8BC2705
:100E100003FB01F302FB03F2002A04DD52000298F7
:100E2000109916F055FC6FF0010050E75146484606
:100E30000DF0AAFB002858DBD9F8BC37002BC8BF3F
:100E4000002404DC34E0D9F8BC37A34230DD22466C
:100E5000514648460BF012FA002804F10104F2DA78
:100E6000D9F8C817D9F8C437D9F8BC2703FB01F360
:100E700002FB03F2002A04DD52000298002116F062
:100E800027FC6FF00A0022E7D9F8C417D9F8C83751
:100E9000D9F8BC2703FB01F302FB03F2002A04DDAF
:100EA00052000298002116F013FC6FF008000EE7C4
:100EB000D9F8C82702FB0AF203FB02F3029A48465C
:100EC00002EB430113F03EF8002822DB039AD9F825
:100ED000C4370AF1010A0832534503923FF791AE35
:100EE0000020F4E66FF004007047D9F8C417D9F871
:100EF000C837D9F8BC2703FB01F302FB03F2002A31
:100F000004DD52000298002116F0E2FB6FF00900A8
:100F1000DDE6D9F8C417D9F8C837D9F8BC2703FBE0
:100F200001F302FB03F2002A04DD520002980021C3
:100F300016F0CEFB6FF00B00C9E600BF30B4C478EA
:100F40006CB900EB8202D81C8010D2F8D05006D0C9
:100F50002346013351F8042B2A609842F9D100202E
:100F600030BC70470332921030B4D0F8D05009D062
:100F70000846002301332C6840F8044B9A42F9D10B
:100F800001EB8201084630BC704700BFF0B5012478
:100F900040220023A14284708280C37000F06581EA
:100FA000002900F04F814278C3604FF40061016175
:100FB0000678002A00F06C814FF460674FF4886473
:100FC0004FF4806103F5106E03F53065012AC0F817
:100FD00018E045657ED003F5126E03F53265022AEE
:100FE000C0F81CE0856575D003F5146E03F5346513
:100FF000032AC0F820E0C5656CD003F5166E03F532
:101000003665042AC0F824E0056663D003F5186E3F
:1010100003F53865052AC0F828E045665AD003F57F
:101020001A6E03F53A65062AC0F82CE0856651D0A1
:1010300003F51C6E03F53C65072AC0F830E0C56671
:1010400048D003F51E6E03F53E65082AC0F834E06B
:1010500005673FD003F5206E03F54065092AC0F807
:1010600038E0456736D003F5226E03F542650A2A5B
:10107000C0F83CE085672DD003F5246E03F5446588
:101080000B2AC0F840E0C56724D003F5266E03F5AF
:1010900046650C2AC0F844E0C0F880501AD003F529
:1010A000286E03F548650D2AC0F848E0C0F8845062
:1010B00010D003F52A6E03F54A650E2AC0F84CE0FD
:1010C000C0F8885006D003F52C6503F54C62056521
:1010D000C0F88C204161C0F8CC40002E00F0AE80FA
:1010E00003F5A062012EC0F8902000F0E28003F525
:1010F000A462022EC0F8942000F0D28003F5A8620A
:10110000032EC0F8982045D003F5AC62042EC0F839
:101110009C203FD003F5B062052EC0F8A02039D046
:1011200003F5B462062EC0F8A42033D003F5B862EC
:10113000072EC0F8A8202DD003F5BC62082EC0F8F9
:10114000AC2027D003F5C062092EC0F8B02021D012
:1011500003F5C4620A2EC0F8B4201BD003F5C862A0
:101160000B2EC0F8B82015D003F5CC620C2EC0F8B9
:10117000BC200FD003F5D0620D2EC0F8C02009D0DE
:1011800003F5D4620E2EC0F8C42003D003F5D86254
:10119000C0F8C82003F5805403F5005103F5405210
:1011A000032EC0F8D040C0F8D410C0F8D82045D0E5
:1011B00003F58042042EC0F8DC203FD003F5A042A6
:1011C000052EC0F8E02039D003F5C042062EC0F845
:1011D000E42033D003F5E042072EC0F8E8202DD0FC
:1011E00003F50042082EC0F8EC2027D003F510428A
:1011F000092EC0F8F02021D003F520420A2EC0F8B5
:10120000F4201BD003F530420B2EC0F8F82015D087
:1012100003F540420C2EC0F8FC200FD003F55042DD
:101220000D2EC0F8002109D003F560420E2EC0F843
:10123000042103D003F57043C0F80831C0F80C71E5
:101240000020F0BD1D4DC1724FF4A0610C26062296
:10125000C1801B4F1B4C1C49DFF87CE006702B46FD
:101260004270C560C0F810E0ACE64FF4A0740223F1
:10127000082604224FF0A045C172C4800372067094
:1012800042702B46114F124C1249DFF850E0E8E74C
:1012900013464FF460674FF488644FF4806119E798
:1012A00003F5805203F50053C0F8D020C0F8D430C5
:1012B000C4E703F58053C0F8D030BFE70000044016
:1012C000000E04404004044000040440000E00509E
:1012D0004004005000040050000804400008005082
:1012E00070B5037A012B82B005464FF0000249D059
:1012F000C1685E4CCB6843F04003CB600320019291
:1013000008F07CFAEB681A69019206E008F076FAB8
:10131000EB68013C1A69019219D0019A002A4FF03A
:101320000300F3DA0199514A41F001010191019959
:1013300019611969019103E019690191013A02D01B
:101340000199C907F8D4032008F058FAEB682A7A03
:10135000697A032A14BF4FF434124FF43C1209B1D6
:1013600042F480129A63142008F086FA297AEA6817
:101370000329D36860D0D360EB78012B51D00020D3
:1013800002B070BDC168437A16468A6B66F310429C
:101390000BB142F480128A63CB68344C23F480038F
:1013A00023F0500343F010036FF3C3036FF3C7132D
:1013B0006FF351436FF3D343CB60032000230093BB
:1013C00008F01CFAEB681A69009206E008F016FAB9
:1013D000EB68013C1A69009218D0009A002A4FF07D
:1013E0000300F3DA0099214A41F0010100910099CC
:1013F00019611969009103E019690091013A02D05D
:101400000099C807F8D4032008F0F8F9EB78012B0D
:10141000B5D10522EB6862F3440646F020069E60D3
:1014200000E0EB689E68052262F3440646F0200661
:1014300000209E6002B070BD43F48033D360146B13
:10144000012363F39B646FF3D7542D2344F080543E
:1014500063F316441463C82008F00EFAEB6844F4F2
:1014600000041C63C82008F007FA85E7400D03005C
:10147000C268936843F0010393600020704700BF87
:10148000C268936823F0010393600020704700BF97
:1014900000B583B000230193019A0E4B42F0200265
:1014A0000192019A61F38A120192C168019A0A615C
:1014B0000A69019203E00A690192013B02D0019A94
:1014C0009206F8D4032008F099F9002003B05DF8E3
:1014D00004FB00BF400D030000B583B0002301935F
:1014E000019A0C4B42F010020192C168019A0A6104
:1014F0000A69019203E00A690192013B02D0019A54
:10150000D206F8D4032008F079F9002003B05DF882
:1015100004FB00BF400D0300C26808B5D368012971
:101520006FF35D736FF39E7308D009B943F0804386
:10153000D360322008F0A0F9002008BD43F000532A
:10154000F6E700BFC368586900F00100704700BFAC
:10155000C3685869C04300F001007047C368586908
:1015600000F00100704700BFC36858699B691840CC
:10157000704700BFC3685868704700BF70B5044625
:1015800082B008F0E9F8D4F80C21636900201060FB
:101590001A68012161F301021A601A6860F382027D
:1015A0001A60E37A8B4200F0C280E1680023019365
:1015B000019A684B42F020020192019A102060F3D8
:1015C0008A120192019A0A610A69019203E00A698A
:1015D0000192013B02D0019A9506F8D4032008F04D
:1015E0000DF900230093009AE1685A4B42F0100273
:1015F0000092009A0A610A69009203E00A69009267
:10160000013B02D0009AD006F8D4032008F0F6F887
:101610002378002B5AD0D4F890004FF0FF310022ED
:10162000012B8160C26051D0D4F89400022B8160FC
:10163000C2604BD0D4F89800032B8160C26045D0C3
:10164000D4F89C00042B8160C2603FD0D4F8A00085
:10165000052B8160C26039D0D4F8A400062B8160CC
:10166000C26033D0D4F8A800072B8160C2602DD0AF
:10167000D4F8AC00082B8160C26027D0D4F8B00049
:10168000092B8160C26021D0D4F8B4000A2B81609C
:10169000C2601BD0D4F8B8000B2B8160C26015D09B
:1016A000D4F8BC000C2B8160C2600FD0D4F8C0000D
:1016B0000D2B8160C26009D0D4F8C4000E2B81606C
:1016C000C26003D0D4F8C8309960DA6001212046A6
:1016D00008F036F8D4F8CC2013686FF382036FF368
:1016E00041036FF3C3036FF34513D90402D443F4EA
:1016F00080531360C82008F0BFF8E2681648002342
:101700004FF0FF3193615161516051619061E07818
:101710009169984208BF102343F00C5343F400131F
:1017200043F008030B430020936102B070BD0246F2
:101730008023E026E168602563F30F0066F30F0263
:1017400065F31F4065F31F424B628862C1F80021B8
:101750002CE700BF400D0300000800804369986833
:10176000C04300F00100704738B505460C4607F04D
:10177000E7FFD5F8CC2013686FF382036FF34103C2
:101780006FF3C3036FF34513D90406D4012C0FD0B4
:10179000C820BDE8384008F06FB8002CF8D11946D1
:1017A00064F30C311160C820BDE8384008F064B81B
:1017B00043F480511160C820BDE8384008F05CB89F
:1017C00010B4C2680C4C00234FF0FF31936151619B
:1017D000516051619461C078916910BC984208BF12
:1017E000102343F00C5343F4001343F008030B435E
:1017F00000209361704700BF0008008042691368B1
:1018000061F3010313607047D0F8CC30186820F002
:101810002E00704743695869704700BF38B50546C8
:101820000A20D5F8CC2013686FF382036FF34103CD
:101830006FF3C3036FF3451343F48074146008F02F
:101840001BF8D5F8CC306FF308241C60142008F086
:1018500013F8012038BD00BF2DE9F04100EB8102F3
:101860004FF0FF33D2F890504E01AB608219C3782D
:1018700092F8B142012B4FF000031A4608BF04232F
:10188000032C63D8DFE804F04E424E02871943F47C
:10189000D36397F8AE7243F001030FB143F4807342
:1018A000D0F814C0EB60DCF81880D0F80CE001230D
:1018B00003FA01F141EA0801CCF81810DEF81830FB
:1018C000304443F00073CEF8183090F8ACE290F852
:1018D000AF3290F8AD62B0F8B2126EF39C52A3F141
:1018E000020366F3CE22B3FA83F367F3CF325B09C8
:1018F00063F3514264F3934261F30A02032C08BF7D
:1019000042F000522A600020BDE8F081871943F4BC
:10191000087397F8AE7243F00103002FC0D043F470
:10192000C073BDE700EB060E43F493639EF8AE72FE
:1019300043F00103002FB1D19EF8B0E243F0400321
:10194000BEF1000FACD043F02003A9E7871997F848
:10195000AE72A5E7F0B54E0185190024D5F8BC326A
:1019600083B1B5F8B2725A1E3A44B2FBF7F292B2A2
:10197000B2F5807F53D93B024FF48077C5F8BC3273
:101980003A4601E001273A46851995F8AEE2BEF1E4
:10199000000F05D0B5F8B23202FB03F3C5F8BC3234
:1019A00001F10D0E00EB4E1200EB810192F814C113
:1019B000D1F8905063F3120467F3DC446CF35E7467
:1019C0002C61C778012F1AD0D0F814C02A68DCF82F
:1019D0000840E44364F35D7242F000426FF39E728C
:1019E0002A60D7B9821992F8AE42B4B9ABB192F875
:1019F000B122032A23D8DFE802F035153515D2F8D5
:101A0000182143696A612A689B68DB4363F35D724E
:101A100042F000426FF39E722A600020F0BDC2F3D4
:101A20000907B1E7DCF81040DA1CA4B2C2F38F0258
:101A3000A24204D9C468A26942F08062A2619BB24A
:101A400000EB4E1003339B10D0F81801D1F8D040B2
:101A5000E3D00022013250F8041B21609342F9D1F7
:101A60000020F0BDC568EC6ADA1CA4B2C2F38F0294
:101A7000A242E4D9AA6942F02002AA61DFE700BFCE
:101A800000EB8101D1F89020136843F040435903E3
:101A900009D541690969C1F3074109B96FF3DF73DA
:101AA000136000207047C168C96AC1F3074100296B
:101AB000F4D013600020704700EB81014FF0004329
:101AC000D1F89020012161F3DC43136113680020F9
:101AD00043F0004360F39E731360704710B5436991
:101AE0004FF0FF3100229A615961017882B00446BB
:101AF000002900F0B680D0F89000036862F3DF732D
:101B000043F0804362F3CF330129036000F0A980E2
:101B1000D4F89400036862F3DF7343F0804362F308
:101B2000CF330229036000F09C80D4F8980003684A
:101B300062F3DF7343F0804362F3CF330329036022
:101B400000F08F80D4F89C00036862F3DF7343F0E9
:101B5000804362F3CF330429036000F08280D4F81D
:101B6000A000036862F3DF7343F0804362F3CF3376
:101B70000529036075D0D4F8A400036862F3DF730D
:101B800043F0804362F3CF330629036069D0D4F871
:101B9000A800036862F3DF7343F0804362F3CF333E
:101BA000072903605DD0D4F8AC00036862F3DF73EB
:101BB00043F0804362F3CF330829036051D0D4F857
:101BC000B000036862F3DF7343F0804362F3CF3306
:101BD0000929036045D0D4F8B42013686FF3DF738C
:101BE00043F080436FF3CF330A29136039D0D4F820
:101BF000B82013686FF3DF7343F080436FF3CF3384
:101C00000B2913602DD0D4F8BC2013686FF3DF7359
:101C100043F080436FF3CF330C29136021D0D4F805
:101C2000C02013686FF3DF7343F080436FF3CF334B
:101C30000D29136015D0D4F8C42013686FF3DF7337
:101C400043F080436FF3CF330E29136009D0D4F8EB
:101C5000C82013686FF3DF7343F080436FF3CF3313
:101C6000136000230193019AE168184B42F01002BF
:101C70000192019A0A610A69019203E00A690192DC
:101C8000013B02D0019AD006F8D4032007F0B6FD3C
:101C900000230093009AE1680C4B42F0200200926E
:101CA000009A102060F38A120092009A0A610A6971
:101CB000009203E00A690092013B02D0009A92066A
:101CC000F8D4032007F09AFD02B010BD400D0300C8
:101CD0002DE9F04106468748874CDFF834820F46ED
:101CE00000229421054608F081FA4FF480532360C6
:101CF00005E023685A1E2260002B00F0EC8041466C
:101D0000284608F075FB0028F3D07A48DFF80482F3
:101D10003146054608F004FB4FF48053236005E08C
:101D200023685A1E2260002B00F0D58041462846C9
:101D300008F05EFB0028F3D06E48DFF8C08139461A
:101D4000054608F0EDFA4FF49613236005E023688A
:101D50005A1E2260002B00F0CA804146284608F037
:101D60005DFB0028F3D063480121054608F030FAF6
:101D70004FF49613236005E023685A1E2260002B5F
:101D800000F0AD804FF40031284608F047FB0028F2
:101D9000F2D15848DFF868810121054608F00AFAB7
:101DA0004FF48053236005E023685A1E2260002B05
:101DB00000F095804146284608F01AFB0028F3D031
:101DC0004C48DFF84C8100229421054608F00EFAB9
:101DD0004FF48053236004E023685A1E2260002BD6
:101DE0007DD04146284608F003FB0028F4D0414846
:101DF0003146054608F094FA4FF480533F4E236075
:101E000004E023685A1E2260002B68D03146284621
:101E100008F004FB0028F4D03648394E012105466D
:101E200008F0C8F94FF48053236004E023685A1E79
:101E30002260002B53D03146284608F0D9FA0028FA
:101E4000F4D02C482F4D01229421804608F0CEF981
:101E50004FF48053236004E023685A1E2260002B55
:101E60003DD02946234808F0D9FA0028F4D021486B
:101E7000254E0021054608F0C5F901212846B8F88D
:101E8000183008F0A5F94FF48053236003E023686D
:101E90005A1E22601BB33146284608F0BFFA0028BC
:101EA000F5D0144808F03EFA4FF480520346226001
:101EB000104803E02268511E216082B10288920519
:101EC000F8D401210B481C4608F09CF90F49094839
:101ED00008F0C0FA06E0BDE8F04107F023BF07F0C4
:101EE00021FF0446381B18BF0120BDE8F08107F030
:101EF00019FF32E7005400401400002004000010D5
:101F00000100030002000010400000100004001057
:101F100082000700800007001B4BF0B458605A682D
:101F2000012A1BD0022801D0F0BC70471749184A7B
:101F3000DA6000264FF400120E609A60154F164DBD
:101F4000164C17481749184A0B261F615E619D61A0
:101F5000DC61186259629A62F0BC70470B49134AFF
:101F6000DA6000204FF4001208609A60104F2F26AC
:101F70004FF020554FF010544FF001504FF00851E2
:101F80004FF00452E1E700BF14000020A40D002030
:101F9000106002400C74004020000010100000107F
:101FA000010080100800001004008010B86002409A
:101FB0000C3C00402DE9F04F64298BB0164600F22E
:101FC000BE81B74FC1EB012187FB0137C917C1EBB8
:101FD0006717FFB207F119085FFA88F80121082096
:101FE00003F00EFF102540F2012306A9AD48079328
:101FF000069506F093F90121072003F001FFAA4B93
:10200000AA4807934FF4107206A9069206F086F9C3
:1020100004220621A548A64C06F010FA0422092144
:10202000A24806F00BFA40F202234FF4A05206A990
:10203000A0480793069206F071F9062204219E48F3
:1020400006F0FCF906220A219A4806F0F7F96368BF
:10205000022B00F0948306A99748069506F05EF9D6
:1020600006220C21934806F0E9F940F2022380226F
:1020700006A990480793069206F050F90622072118
:102080008C4806F0DBF900221021864806F0CAF9D8
:1020900044F6FF75013DFDD10122DFF8249281480D
:1020A000102106F0BFF901214FF4001003F0CCFE1F
:1020B000484607F0B9FF4BF6FF7333214FF48060B9
:1020C0004FF48042ADF81E30ADF820107B4BADF8D8
:1020D0002200012148460693ADF82420ADF81C509B
:1020E00008F05AF806A9484607F0D4FF4FF49613B3
:1020F000236003E023685A1E22600BB34FF40031C3
:10210000484608F08BF90028F4D101216C48DFF82B
:10211000B8916B4D08F04EF84FF48053236003E004
:1021200023685A1E22605BB14946284608F060F9D0
:102130000028F5D001210220FFF7CAFD824602E007
:1021400007F0F0FD82464FF4961323605C4D03E0E8
:1021500023685A1E226003B34FF40031284608F06A
:102160005DF90028F4D101215548DFF85C91544D08
:1021700008F020F84FF48053236003E023685A1ED0
:10218000226053B14946284608F032F90028F5D0BC
:10219000AF210420FFF79CFD01E007F0C3FD494D8E
:1021A000DFF81C91AF232B714FF496138244236008
:1021B00003E023685A1E22600BB34FF400314846F7
:1021C00008F02CF90028F4D101213D48DFF8F8B0DF
:1021D000DFF8EC9007F0EEFF4FF48053236003E04C
:1021E00023685A1E226053B15946484608F000F948
:1021F0000028F5D081210520FFF76AFD01E007F0F6
:1022000091FD4FF4961382442360DFF8B49003E00D
:1022100023685A1E22600BB34FF40031484608F081
:10222000FDF80028F4D101212548DFF89CB0DFF843
:10223000909007F0BFFF4FF48053236003E02368C2
:102240005A1E226053B15946484608F0D1F800287A
:10225000F5D004210620FFF73BFD01E007F062FD09
:102260004FF49613E62F82442360154F05D943E0BF
:1022700023685A1E2260002B65D04FF40031384687
:1022800008F0CCF80028F3D101210D48DFF8389090
:102290000B4F07F08FFF4FF4805323601BE000BF0C
:1022A0001F85EB51000C02400202010000040240B5
:1022B000140000200008024000000240A086010037
:1022C00000540040A40D00200100030023685A1EA2
:1022D0002260002B37D04946384608F089F800289C
:1022E000F4D041462020FFF7F3FC2EE023685A1E6D
:1022F0002260002B00F053824FF40031384608F082
:102300008DF80028F2D10121B548DFF8D892B44FFA
:1023100007F050FF4FF48053236005E023685A1EF6
:102320002260002B00F03B824946384608F060F8F6
:102330000028F3D041462020FFF7CAFC31E24FF0DD
:102340007D0864274AE607F0EDFC4FF496132360FE
:10235000A34F05E023685A1E2260002B00F09481F1
:102360004FF40031384608F059F80028F2D1012125
:102370009B48DFF870929A4F07F01CFF4FF4805390
:10238000236005E023685A1E2260002B00F07C8148
:102390004946384608F02CF80028F3D04146212061
:1023A000FFF796FC6368022B00F074814FF49613DC
:1023B00023608B4F05E023685A1E2260002B00F03B
:1023C00097814FF40031384608F028F80028F2D100
:1023D00001218348DFF80C82814F07F0EBFE4FF4B8
:1023E0008053236005E023685A1E2260002B00F012
:1023F0007F814146384607F0FBFF0028F3D09E213D
:102400000220FFF765FC4FF4961382442360744F5B
:1024100005E023685A1E2260002B00F06C814FF407
:102420000031384607F0FAFF0028F2D101216C484C
:10243000DFF8B0816A4F07F0BDFE4FF48053236090
:1024400005E023685A1E2260002B00F054814146AB
:10245000384607F0CDFF0028F3D000210A20FFF70F
:1024600037FC6368022B82442DD04FF4961323600F
:102470005B4F05E023685A1E2260002B00F0448168
:102480004FF40031384607F0C9FF0028F2D101218E
:102490005348DFF85081524F07F08CFE4FF48053C1
:1024A000236005E023685A1E2260002B00F02C8177
:1024B0004146384607F09CFF0028F3D004210E2047
:1024C000FFF706FC82444FF496132360444F05E067
:1024D00023685A1E2260002B00F010814FF4003157
:1024E000384607F09BFF0028F2D101213C48DFF875
:1024F000F4803B4F07F05EFE4FF48053236005E00D
:1025000023685A1E2260002B00F0F88041463846AE
:1025100007F06EFF0028F3D000212720FFF7D8FB3B
:102520004FF49613824423602D4F05E023685A1E12
:102530002260002B00F0E5804FF40031384607F0B0
:102540006DFF0028F2D101212548DFF89880244F43
:1025500007F030FE4FF48053236005E023685A1ED5
:102560002260002B00F0CD804146384607F040FF46
:102570000028F3D00F211F20FFF7AAFB4FF496137A
:1025800082442360164F04E023685A1E2260002B09
:1025900073D04FF40031384607F040FF0028F3D1E4
:1025A00001210F48DFF83C800D4F07F003FE4FF488
:1025B0008053236004E023685A1E2260002B5CD005
:1025C0004146384607F014FF0028F4D00A211A20AB
:1025D000FFF77EFB4FF4961382442360004F08E020
:1025E000005400400100030023685A1E2260002BA3
:1025F00046D04FF40031384607F010FF0028F3D1E1
:102600000121B848DFF8F082B64F07F0D3FD4FF450
:102610008053236003E023685A1E226083B341463F
:10262000384607F0E5FE0028F5D00A211B20FFF709
:102630004FFB074601214FF4004003F005FCAA4878
:10264000FEF706F84FF000084FF000734FF40072E9
:1026500002A9A54803930496ADF814800292FEF7F0
:102660004DF86368022B574400F0C580002F4FD00F
:10267000012738460BB0BDE8F08F07F053FBA9E700
:1026800007F050FB0746D5E707F04CFB6368022BC9
:102690007FF48CAE4FF496132360924F05E02368CD
:1026A0005A1E2260002B00F0BA804FF400313846E9
:1026B00007F0B4FE0028F2D101218A48DFF8388201
:1026C000884F07F077FD4FF48053236005E02368BF
:1026D0005A1E2260002B00F0A2804146384607F0C7
:1026E00087FE0028F3D001210820FFF7F1FA98E0D7
:1026F00007F018FB87E607F015FBB2E607F012FBC0
:102700000EE707F00FFB39E707F00CFB8244DAE62F
:102710006668012E00F04E816268012A00F0458152
:102720000121724803F06CFB01214FF0005003F0CF
:102730008BFB00240323102202A96D488DF80C3076
:1027400002928DF80F4005F0E9FD06A92046069497
:102750000794099402F06CFA2046012102F086FAEF
:10276000012271216048FEF7FFF80AA8614B40F88A
:10277000243D07F0E5F838460BB0BDE8F08F0121A5
:10278000084603F03DFB0322002306A9584806959E
:102790008DF81C208DF81F3005F0C0FD65E407F0B2
:1027A000C1FA4FF4961323604E4F05E023685A1E7A
:1027B0002260002B3FF468AF4FF40031384607F039
:1027C0002DFE0028F2D101214648DFF82C91454F1B
:1027D00007F0F0FC4FF48053236005E023685A1E95
:1027E0002260002B3FF450AF4946384607F000FE08
:1027F0000028F3D0D2E501214FF0005003F024FB74
:1028000006A94046CDF81880CDF81C80CDF824806C
:1028100002F00EFA4046012102F028FA26E707F0FE
:1028200081FA4FF496130AEB000823602D4F03E062
:1028300023685A1E226003B34FF40031384607F074
:10284000EDFD0028F4D101212648DFF8AC90254F9A
:1028500007F0B0FC4FF48053236003E023685A1E56
:10286000226053B14946384607F0C2FD0028F5D032
:1028700001210920FFF72CFA01E007F053FA4FF489
:10288000961380442360174F03E023685A1E22608A
:1028900003B34FF40031384607F0C0FD0028F4D1EF
:1028A00001211048DFF850900E4F07F083FC4FF4E1
:1028B0008053236003E023685A1E226053B14946C7
:1028C000384607F095FD0028F5D0C0210E20FFF70F
:1028D000FFF901E007F026FA4FF4961380442360D5
:1028E000004F0FE000540040003C00400100200079
:1028F00000000240330000010100030023685A1E5B
:10290000226003B34FF40031384607F087FD0028FA
:10291000F4D101214648DFF82491454F07F04AFCE5
:102920004FF48053236003E023685A1E226053B1A2
:102930004946384607F05CFD0028F5D000211420F8
:10294000FFF7C6F901E007F0EDF94FF49613804464
:102950002360374F03E023685A1E226003B34FF40D
:102960000031384607F05AFD0028F4D101213048E3
:10297000DFF8C8902E4F07F01DFC4FF48053236002
:1029800003E023685A1E226053B14946384607F0D7
:102990002FFD0028F5D000211520FFF799F901E05F
:1029A00007F0C0F908EB000A00E502212148FDF715
:1029B000D1FF5EE63146A06803F022FA3946E068AE
:1029C00006F052F8E06805F07DFF1B4B296822698C
:1029D000196040215A60D9604FF6FE724FF4806151
:1029E0001A6199614FF400624FF40051DA61196283
:1029F000E0689F6019464FF400325F615F62DF62FA
:102A00001F635F639F639A6205F0F0FFE0683246E0
:102A1000102106F0ABF863698DF8057001A88DF8F8
:102A200006708DF807608DF8043006F089FF73E6B4
:102A300000540040003C004074BC00200100030032
:102A400070B5434C82B063698DF80030002568464C
:102A50008DF801508DF802508DF8035006F070FF8C
:102A60002946E06806F000F8E06805F02BFF2A46EA
:102A70001021384805F0D6FC44F6FF73013BFDD128
:102A8000012210213348344D05F0CCFC4FF496134D
:102A9000236003E023685A1E2260FBB14FF400312B
:102AA000284607F0BBFC0028F4D12B482B4E01210F
:102AB000054607F07FFB4FF48053236003E0236853
:102AC0005A1E226053B13146284607F091FC002877
:102AD000F5D001210220FFF7FBF801E007F022F911
:102AE00000244FF4A05369461D488DE8180005F0F6
:102AF00015FC102369461B48009305F00FFC224685
:102B00000421184805F09AFC22460A21144805F0D1
:102B100095FC22460C21124805F090FC8023694662
:102B20000F48009305F0FAFB062207210C4805F038
:102B300085FC21460C48FDF76FFE0B48FDF788FD2C
:102B400021464FF4004003F07FF9204602B070BDEB
:102B500014000020000C024000540040010003005B
:102B60000008024000000240003C0040F8B5194C4B
:102B7000194B6768E162B1F5802F34BF8A084FF6C0
:102B8000FF72012F08BF520805460E46E0689D609F
:102B900019461A6105F02AFFE068012105F064FF7B
:102BA0000E48838B5B0502D40121FDF735FEE06AF8
:102BB0000B4B4FF6FF71814228BF0146B0F5803FB5
:102BC0002CBF084840002844C1EB5601186021631F
:102BD0000020F8BD1400002074BC0020003C004020
:102BE00034BC0020FEFF01002DE9F041002800F078
:102BF000A580874F874C3E79874D4FF49613F6B2E8
:102C0000236003E023685A1E22600BB34FF40031A7
:102C1000284607F003FC0028F4D17F48DFF8FC8148
:102C20000121054607F0C6FA4FF48053236003E004
:102C300023685A1E22605BB14146284607F0D8FB44
:102C40000028F5D031460420FFF742F8064602E09E
:102C500007F068F806463F796F4D4FF49613FFB2C0
:102C6000236003E023685A1E226003B34FF400314F
:102C7000284607F0D3FB0028F4D16748DFF89C8191
:102C80000121054607F096FA4FF48053236003E0D4
:102C900023685A1E226053B14146284607F0A8FB1C
:102CA0000028F5D039460420FFF712F801E007F0BC
:102CB00039F84FF4961306442360574D03E0236818
:102CC0005A1E226093B34FF40031284607F0A6FB4A
:102CD0000028F4D15048514F0121054607F06AFA07
:102CE0004FF48053236003E023685A1E2260EBB147
:102CF0003946284607F07CFB0028F5D09E210220AB
:102D0000FEF7E6FF351815D1454E01223046022167
:102D1000FDF720FEE068012105F0A6FEB38B5B0500
:102D200009D430460121FDF777FD04E006F0FAFFF3
:102D30003518E9D001252846BDE8F081354C364DDF
:102D40004FF49613236003E023685A1E226003B3F6
:102D50004FF40031284607F061FB0028F4D12E48DB
:102D60002E4E0121054607F025FA4FF480532360CB
:102D700003E023685A1E22605BB13146284607F003
:102D800037FB0028F5D0FF210420FEF7A1FF054600
:102D900002E006F0C7FF05464FF4961323601E4E6F
:102DA00003E023685A1E226063B34FF400313046BB
:102DB00007F034FB0028F4D11748184F01210646CC
:102DC00007F0F8F94FF48053236003E023685A1E9C
:102DD0002260BBB13946304607F00AFB0028F5D027
:102DE00001210220FEF774FF4519A3D12A460221D2
:102DF0000B48FDF7AFFDE068294605F035FE284693
:102E0000BDE8F08106F08EFF451993D1EEE700BFD3
:102E1000A40D002014000020005400400100030015
:102E2000003C0040F8B5564C564D4FF496130646FC
:102E3000236003E023685A1E2260FBB14FF4003187
:102E4000284607F0EBFA0028F4D14E484E4F0121F6
:102E5000054607F0AFF94FF48053236003E0236881
:102E60005A1E226053B13946284607F0C1FA00289D
:102E7000F5D0FF210420FEF72BFF01E006F052FF02
:102E80004FF49613022E23603E4D05D12BE02368AC
:102E90005A1E2260002B4BD04FF40031284607F019
:102EA000BDFA0028F3D13748374E0121054607F017
:102EB00081F94FF48053236004E023685A1E226096
:102EC000002B35D03146284607F092FA0028F4D07E
:102ED0009F210220FEF7FCFE05462CE023685A1EC7
:102EE0002260002B47D04FF40031284607F096FAB5
:102EF0000028F3D12348244E0121054607F05AF952
:102F00004FF48053236004E023685A1E2260002B94
:102F100031D03146284607F06BFA0028F4D09F21C3
:102F20000220FEF7D5FE05467DB101252846F8BDF5
:102F300006F0F8FE054640F6FF72013AFDD1102179
:102F4000124805F06FFA002DEFD12946E06805F030
:102F50008BFDA369E669226A616AE0683343134323
:102F6000194305F0E9FD29460948FDF755FCE36AD8
:102F700023632846F8BD06F0D5FE0546D4E700BF1A
:102F8000140000200054004001000300000C024027
:102F9000003C004064282DE9F04100F29C80644B25
:102FA000C0EB002083FB0023C017C0EB6310E628B2
:102FB000C5B22FDD5F4C604E19354FF49613EDB25C
:102FC000236005E023685A1E2260002B00F08580F4
:102FD0004FF40031304607F021FA0028F2D156486C
:102FE000564F0121064607F0E5F84FF48053236061
:102FF00004E023685A1E2260002B6ED0394630460A
:1030000007F0F6F90028F4D029462020FEF760FEEC
:10301000074665E01935EDB2464C474E4FF496131E
:10302000236003E023685A1E226003B34FF400318B
:10303000304607F0F3F90028F4D13F483F4F012113
:10304000064607F0B7F84FF48053236003E0236887
:103050005A1E22605BB13946304607F0C9F9002894
:10306000F5D029462020FEF733FE074602E006F0A1
:1030700059FE07464FF4961323602F4E03E0236852
:103080005A1E226013B34FF40031304607F0C6F9E0
:103090000028F4D12848DFF8A4800121064607F073
:1030A00089F84FF48053236003E023685A1E22609E
:1030B00063B14146304607F09BF90028F5D0294618
:1030C0002120FEF705FE3844BDE8F08106F02AFE17
:1030D0003844BDE8F0817D259EE706F023FE0746D3
:1030E0004FF496132360144E04E023685A1E2260A6
:1030F000002BEBD04FF40031304607F08FF9002859
:10310000F3D10D48DFF834800121064607F052F86C
:103110004FF48053236004E023685A1E2260002B82
:10312000D4D04146304607F063F90028F4D0C6E712
:103130001F85EB51140000200054004001000300E3
:103140000128F8B531D02F4B2F4C1E792F4D4FF45D
:103150009613F6B2236003E023685A1E226003B37D
:103160004FF40031284607F059F90028F4D12748D8
:10317000274F0121054607F01DF84FF480532360C7
:1031800003E023685A1E22605BB13946284607F0E7
:103190002FF90028F5D031460420BDE8F840FEF7AD
:1031A00097BDBDE8F84006F0BDBD174C174D4FF474
:1031B0009613236004E023685A1E2260002BF0D08F
:1031C0004FF40031284607F029F90028F3D10F48C1
:1031D0000F4E0121054606F0EDFF4FF480532360AA
:1031E00004E023685A1E2260002BDAD031462846BC
:1031F00007F0FEF80028F4D0FF210420BDE8F840D5
:10320000FEF766BDA40D002014000020005400400D
:103210000100030070B5264CA169E06805F070FC60
:10322000002835D0256B002D33D0E06805F060FC18
:103230000028FAD11F4DA169E06805F07DFC1E4B06
:10324000226B296899604FF6FF718A4228BF0A46AF
:10325000E0681A61194605F0C9FBE068012105F034
:1032600003FC236B2A68E068B3F5803F28BF134E48
:103270004FF6FF7138BF5E008B4232448CBF5B1A41
:10328000DB1A2A6023630121BDE8704005F0ECBB26
:1032900070BD2946E06805F0E7FBA169E06805F02C
:1032A0004BFC044B29461868BDE8704006F01CBD75
:1032B0001400002034BC002074BC0020FEFF01007C
:1032C00070B5264CA169E06805F01AFC002835D0DD
:1032D000256B002D33D0E06805F00AFC0028FAD1F8
:1032E0001F4DA169E06805F027FC1E4B226B296881
:1032F00099604FF6FF718A4228BF0A46E0681A615A
:10330000194605F073FBE068012105F0ADFB236B66
:103310002A68E068B3F5803F28BF134E4FF6FF716F
:1033200038BF5E008B4232448CBF5B1ADB1A2A60C6
:1033300023630121BDE8704005F096BB70BD2946AE
:10334000E06805F091FBA169E06805F0F5FB044B2E
:1033500029461868BDE8704006F0C6BC140000207D
:1033600034BC002074BC0020FEFF010008B502211F
:103370000B48FDF709FB58B10A4B5B68022B08D0DC
:1033800006F0CEFCBDE8084001460548FDF7C2BA8C
:1033900008BD06F0C5FC0146042001F0AFFCEFE7D4
:1033A000003C00401400002070B5124C124B6568C0
:1033B0000646012D0A46E0689E6011D019461A6142
:1033C00005F014FBE068012105F04EFB0B48838BF0
:1033D0005B0500D570BD0121BDE87040FDF71CBA4A
:1033E0004A0819461A6105F001FB2946E06805F014
:1033F0003BFBEBE71400002074BC0020003C0040C5
:1034000010B5012186B0104802F0FAFC01214FF0FE
:10341000005002F019FD00241022032369460B48D6
:1034200000928DF804308DF8074004F077FF2046B5
:1034300002A902940394059401F0FAFB20460121AD
:1034400001F014FC06B010BD010020000000024095
:1034500000230260C160436083607047F0B443683A
:10346000846801F01F0103FA01F2C1F11F05611A1E
:10347000EB40002942604FEA5303816002DB1846AB
:10348000F0BC7047C568032DC1F100062EDC002298
:103490004260002D48D00468621C02602278012D31
:1034A0004FEA022242600CD0A71C076067783A43BB
:1034B0001202022D426004D0E71C0760A478224368
:1034C0001202C5F10304E40002FA04F401F120023F
:1034D00004FA06F624FA02F2002401EBC501C460E6
:1034E000134346608160F0BC1846704707683C464D
:1034F0007A1C026014F8022B0460120642607C7889
:1035000042EA0442FC1C42600460BC7842EA0424A3
:103510003A1D80E81400FA78043D2243203102FA73
:1035200006F6C560CA40DBE72E462A46D4E700BF50
:1035300003688068591AC0EBC100801A704700BF49
:1035400030B1036823B15869003018BF01207047BB
:103550004FF0FF30704700BF002800F0E58003689F
:10356000002B00F0E1800A78FF2A40F0DD802DE991
:10357000F04F4A7802F0E004E02C83B040F0CF80B6
:10358000D20894071ABFD24302F0010202221A7035
:103590004D78C5F34105C5F10409C3F8049091F8CD
:1035A00001E06FEA0E0404F001049C608E78360995
:1035B000DE608C78C4F381041C6191F80280C8F34A
:1035C0004008C3F814808F7807F001079F61CF7817
:1035D000BF091F7791F803C00097CCF3011CC3F813
:1035E00020C091F803C0CCF3C00CC3F824C091F8FC
:1035F00003C0CCF3800CC3F828C091F803C00EF0D0
:1036000001070CF0030C032C0197C3F82CC000F049
:103610008680B9F1040F00F082800F2E7FD04FF02A
:10362000DE0C0CFB02FBDFF814A1009F4FF04A0CEC
:103630001CFB04BCD444012FC3F834C005D04FF0A8
:10364000000C032FC3F820C066D04FF0020A4FEAE7
:10365000420E0EEB020CC5F103050CEB040BC0F897
:10366000BCA7DFF8DCA0C0F8D097002A0CEB050956
:1036700080F8D4272E4A5AF82B7032F91920C0F856
:10368000C07714BF4FF0010A4FF0020AC0F8C4A778
:1036900092FBFAF2C0F8C8276EB3CCEB0C1C009A70
:1036A000DFF8A090C4EB041464443444032A0CBF34
:1036B00077460EF10107C5EB05151E4AAC441E4DB9
:1036C00032F91420019C35F917506644002C39F961
:1036D0001640A2EB0502A2F1040214BF0026022646
:1036E000C4EB4415921B04EB85044244E400C0F88B
:1036F000CC27C0F8B847019A2AB1002204201A63E7
:1037000003B0BDE8F08F08794A7942EA002206202A
:103710001A6303B0BDE8F08F4FF0010A97E74FF04E
:10372000FF3003B0BDE8F08F4FF0FF30704700BFAF
:1037300058C8010834C7010844C8010898C40108E2
:103740007CC901086CC801082DE9F04F8BB00890C6
:10375000002801F0B98103680746002B01F0B4810D
:10376000426807921646002A01F0AE811A7802924A
:103770004C780D78C878002A00F0F38024041A7F72
:103780008B7844EA05640443032A44EA03244FEA9D
:1037900004220CBF1E231D2322FA03F34FEA530316
:1037A00073604FEA14640BBF012002200923112328
:1037B000346001F1040508BF052602FA00F118BFC4
:1037C0000D2609930CBF172216220898D0F8C4378B
:1037D0000693002B40F3BE8000230593D0F8BC373E
:1037E0000193079B0393019B002B40F3A780029B4F
:1037F000039C002B0CBF1B23162304930CBF4FF01C
:10380000040E4FF0090E00270B46B2F10C014FEAEF
:10381000135C4FEA033000F1FA82C00D5B05C4F877
:1038200028C0B1F1090C00F19D82BCF108024FEAF9
:103830001361E0624FEA032300F1C282049821631E
:1038400023FA00F0B2EB0E024FEA500003FA0EF337
:1038500000F12E82B2F101084FEAD37160634FEAA2
:10386000430300F15682A163002900F08581B8F17D
:1038700002004FEA93724FEA830C00F117844FEA7B
:10388000DC7CDB00411EE26300F11883481F4FEA35
:10389000D368C4F840C04FEA431300F14183411F8D
:1038A0004FEAD369C4F844804FEA431300F16A83B6
:1038B0000020E064C81E4FEA5378C4F848904FEAED
:1038C000C30300F19383C11E4FEA5379C4F85080BB
:1038D0004FEAC30300F1BC834FEA5378DB00C81EF4
:1038E000C4F8549000F1BD82D90F5B00C4F8588031
:1038F000002A40F0D681E262A2626263E26DC2F108
:1039000014022266029A002A00F064810022B0F1BB
:10391000010C626600F16D81BCF101024FEAD370C7
:10392000A1664FEA430300F193810199E0660137F4
:10393000B94204F148043FF768AF19460398059B64
:10394000903003900698013383420593FFF64BAF06
:10395000079B1C68089B0998C3F8D8470BB0BDE8C3
:10396000F08F24041A7F8B78D7F8BC7744EA05647B
:103970000443032A44EA03244FEA44220CBF1A23D7
:103980001C2322FA03F34FEA53030CBF0520032044
:103990004FEAD454736034600CBF1123202301F12B
:1039A000040508BF0D2602FA00F116BF1C261222DC
:1039B0001422002F09937FF708AF079800EB07192F
:1039C0001AE087605F1E4FEAD1724FEA41014AD484
:1039D0007B1EC2604FEAD1724FEA410173D402618B
:1039E0005A1E4FEAD1774FEA410100F19D804761AD
:1039F000103081453FF4E9AE531E4FEAD1774FEACC
:103A00004101DED5032EC2F1010100F39986002E9B
:103A100001F0308095F800E0012E4FEA0E2801F009
:103A20001F8095F801C095F802E04CEA080C4EEAB8
:103A30000C2EC6F1030C4FEA0E2E4FEACC0C0EFAF8
:103A40000CFC1F3203352CFA02FE0CFA01F103EBD9
:103A5000C603002647EA0E0787605F1E4FEAD17251
:103A60004FEA4101B4D5032EC3F1010100F35086A2
:103A7000002E01F01B8095F800E0012E4FEA0E2881
:103A800001F00A8095F801C095F802E04CEA080CB4
:103A90004EEA0C2EC6F1030C4FEA0E2E4FEACC0C68
:103AA0000EFA0CFE1F3303352EFA03F30EFA01F162
:103AB00007EBC60700261A437B1EC2604FEAD1728D
:103AC0004FEA41018BD5032EC7F1010100F3668651
:103AD000002E00F0D38795F800E0012E4FEA0E2863
:103AE00000F0E88795F801C095F802E04CEA080C70
:103AF0004EEA0C2EC6F1030C4FEA0E2E4FEACC0C08
:103B00000EFA0CFE1F3703352EFA07F70EFA01F1F5
:103B100003EBC60300263A4302615A1E4FEAD177EF
:103B20004FEA41017FF563AF032EC3F1010C00F3AF
:103B30002086002E00F0908795F80080012E4FEA35
:103B4000082A00F09F87697895F802E041EA0A01A7
:103B50004EEA012EC6F103014FEA0E2EC9000EFAFD
:103B600001F11F3321FA03F3033501FA0CF102EBE3
:103B7000C60200261F433AE7B8F10502E16321645B
:103B80004FEAD3604FEA431100F17583C90E9B02DF
:103B90006064501F00F11283A164411F4FEAD36299
:103BA0004FEA431300F13A83180F1B01E2640A1F26
:103BB00000F1A982E065D01E4FEA537C4FEAC303AF
:103BC00000F1D182D90F5B00029AC4F860C0002ACC
:103BD0007FF49CAE421E00F122844FEAD3788C46DB
:103BE000104641465B006246B0F1010C62667FF50B
:103BF00093AE032EC0F1010300F3DD83002E00F02D
:103C000025862A78012E4FEA022900F0DF8595F8F3
:103C10000180AA7848EA090842EA0828C6F10302A6
:103C20004FEA08284FEAC20A08FA0AF21F3002FADD
:103C300003F322FA00F80335D80F5B000CEBC60C37
:103C4000002641EA0801BCF10102A1667FF56DAED4
:103C5000032ECCF1010300F38283002E00F0ED85EA
:103C60002978012E4FEA012900F0CD8595F80180D1
:103C7000A97848EA090841EA0828C6F103094FEA89
:103C800008284FEAC90908FA09F80CF11F010335A1
:103C900028FA01F108FA03F302EBC60200260843F2
:103CA00043E6022A00F0B2830722E2650D2228E6ED
:103CB000032EC2F1000300F33A83002E00F0B88512
:103CC00095F800C0012E4FEA0C2100F0D38595F83D
:103CD000018095F802C048EA01014CEA0121C6F1D1
:103CE000030C4FEACC0C090201FA0CF101FA03F3C0
:103CF00002F1200C21FA0CFC0335D90F5B0002EB1A
:103D0000C602002640EA0C00B2F1010860637FF5AC
:103D1000AAAD032EC2F1010300F3D982002E00F0F8
:103D200064852878012E4FEA002900F0948595F8E3
:103D300001C0A8784CEA090C40EA0C20C6F103093E
:103D400000024FEAC90900FA09F002F11F0C03351D
:103D500020FA0CFC00FA03F308EBC608002641EA3F
:103D60000C0180E5032EC1F1090300F3C782002E88
:103D700000F07B852A78012E4FEA022900F0878522
:103D800095F80180AA7848EA090842EA0822C6F1B3
:103D9000030812024FEAC80A02FA0AF808FA03F303
:103DA000173128FA01F80335190E1B020CEBC60C6B
:103DB000002640EA0800BCF10802E0627FF53EAD53
:103DC000032ECCF1080800F30F83002E00F00985C4
:103DD0002B78012E4FEA032900F00B856878AB7829
:103DE00040EA090043EA0023C6F103091B024FEA37
:103DF000C90903FA09F30CF1180023FA00F003359E
:103E000003FA08F302EBC6020026014316E5032E6F
:103E1000C2F10C0300F3B782002E00F0128528785F
:103E2000012E4FEA002900F0F88495F80180A87867
:103E300048EA090840EA0820C6F1030900024FEAEF
:103E4000C90900FA09F909FA03F31432D80D033548
:103E500029FA02F95B0201EBC60100264CEA090CC3
:103E6000DDE4032EC1F1030300F30A83002E00F00A
:103E7000198595F80090012E4FEA092B00F0D085A6
:103E800095F8019095F802A049EA0B094AEA092A37
:103E9000C6F103094FEA0A2A4FEAC9090AFA09F9E1
:103EA00009FA03F31D3129FA01F90335D90F5B0033
:103EB00000EBC600002648EA090817E5032EC0F10A
:103EC000010300F3F682002E00F0A58595F800802E
:103ED000012E4FEA082A00F0918595F8018095F8A7
:103EE000029048EA0A0849EA0829C6F103084FEA9D
:103EF00009294FEAC80809FA08F808FA03F31F303D
:103F000028FA00F903354FEAD3685B0101EBC601DB
:103F100000264CEA090C481FC4F840C07FF5BFAC2E
:103F2000032EC1F1050300F35D83002E00F0DB8456
:103F300095F80090012E4FEA092B00F0C78495F800
:103F4000019095F802A049EA0B094AEA092AC6F14C
:103F500003094FEA0A2A4FEAC9090AFA09F909FAD4
:103F600003F31B3129FA01FA03354FEAD3695B01E8
:103F700000EBC600002648EA0A08411FC4F8448046
:103F80007FF596AC032EC0F1050300F31183002EDC
:103F900000F0EB8495F80080012E4FEA082B00F02A
:103FA000D78495F8018095F802A048EA0B084AEA00
:103FB000082AC6F103084FEA0A2A4FEAC8080AFA93
:103FC00008F808FA03F31B3028FA00FA03354FEA21
:103FD0005378DB0001EBC6010026002049EA0A09FC
:103FE000E064C81EC4F848907FF56DAC032EC1F1A3
:103FF000030300F3C382002E00F0968495F800902E
:10400000012E4FEA092B00F0828495F8019095F873
:1040100002A049EA0B094AEA092AC6F103094FEA54
:104020000A2A4FEAC9090AFA09F909FA03F31D3104
:1040300029FA01FA03354FEA5379DB0000EBC60099
:10404000002648EA0A08C11EC4F850807FF544AC37
:10405000032EC0F1030300F35E82002E00F0A5845E
:1040600095F80080012E4FEA082B00F0918495F816
:10407000018095F802A048EA0B084AEA082AC6F12E
:1040800003084FEA0A2A4FEAC8080AFA08F808FAA9
:1040900003F31D3028FA00FA03354FEA5378DB00AA
:1040A00001EBC601002649EA0A0918E4032EC8F10B
:1040B000020300F34A82002E00F09B842978012E2F
:1040C0004FEA012900F0888495F801C0A9784CEAEC
:1040D000090C41EA0C21C6F1030909024FEAC9099A
:1040E00001FA09F909FA03F308F11E084FEAD37C33
:1040F000033529FA08F95B0000EBC600002642EA06
:104100000902FFF7BFBB032EC1F1040300F3848251
:10411000002E00F05C8495F800C0012E4FEA0C29B7
:1041200000F0488495F8018095F802C048EA090932
:104130004CEA0929C6F1030C4FEA09294FEACC08D9
:1041400009FA08FC0CFA03F31C312CFA01F10335CF
:104150004FEA537CDB0002EBC60200260843E06511
:10416000D01E7FF52FAD032EC2F1030300F387822B
:10417000002E00F009842978012E4FEA012900F071
:10418000F98395F80180A97848EA090941EA0929E3
:10419000C6F103014FEA09294FEAC10809FA08F1FB
:1041A00001FA03F31D3221FA02F20335D90F5B0045
:1041B00000EBC60000264CEA020C05E5032EC2F116
:1041C000050300F34382002E00F0BE8395F800C083
:1041D000012E4FEA0C2900F0AC8395F8018095F888
:1041E00002C048EA09094CEA0929C6F1030C4FEA62
:1041F00009294FEACC0809FA08FC0CFA03F31B3230
:104200002CFA02FC0335DA0E5B0100EBC600002637
:1042100041EA0C01A164411F7FF5C6AC032EC0F139
:10422000050300F34382002E00F06D8395F800C073
:10423000012E4FEA0C2900F05B8395F8018095F878
:1042400002C048EA09094CEA0929C6F1030C4FEA01
:1042500009294FEACC0809FA08FC0CFA03F31B30D1
:104260002CFA00FC0335180F1B0101EBC6010026D8
:1042700042EA0C029AE4032EC8F1050300F33381ED
:10428000002E00F01F832978012E4FEA012900F04B
:104290000E8395F801C0A9784CEA090941EA092181
:1042A000C6F1030C4FEACC0C4FEA012909FA0CF1D4
:1042B00001FA03F308F11B0821FA08FC0335D90EB3
:1042C0005B0102EBC602002640EA0C0060E495F8B0
:1042D00001C0287895F803804FEA0C4C4CEA006C3A
:1042E000A8784CEA080C4CEA002C02F11F080CFAE2
:1042F00003F3043E2CFA08FC043530E595F8018000
:104300002A7895F803C04FEA084848EA0268AA7874
:1043100048EA0C0848EA022808FA03F301F1170CEE
:10432000043E190E28FA0CF804351B0241E595F8F5
:1043300001C0297895F803804FEA0C4C4CEA016CD7
:10434000A9784CEA080C4CEA012C0CFA03F3203251
:10435000D90F043E2CFA02FC04355B00D2E46978E4
:1043600095F80080EA78090441EA086195F802802E
:10437000114341EA08210CF11F0201FA03F3043E44
:10438000D14004358BE495F801902978E8784FEA1C
:10439000094949EA0169A97849EA000949EA012974
:1043A00009FA03F302F11401D80D043E29FA01F9C8
:1043B00004355B0252E595F801802A7895F803C030
:1043C0004FEA084848EA0268AA7848EA0C0848EA2E
:1043D000022808FA03F300F11F0C043ED80F28FA54
:1043E0000CF804355B002CE468782B78EA7800043C
:1043F00040EA0360AB78104340EA03200CF1180256
:1044000000FA08F3043ED0400435FEE4BCF1000F8E
:104410007FF44AAC0822E2650C22FFF772BA032E41
:10442000C0F1010300F35B81002E00F0058395F8D5
:1044300000C0012E4FEA0C2900F0028395F801809C
:1044400095F802C048EA09084CEA0828C6F1030CAE
:104450004FEA08284FEACC0C08FA0CFC0CFA03F3DC
:104460001F304FEAD37803352CFA00FC5B0002EBD7
:10447000C60000264CEA010C62464146FFF7B4BB79
:10448000687895F800A095F80390000440EA0A6067
:1044900095F802A040EA090949EA0A2909FA03F352
:1044A00001F11D00043ED90F29FA00F904355B0023
:1044B00001E5697895F8009095F8038095F802A0D9
:1044C000090441EA096141EA080949EA0A2909FAA5
:1044D00003F300F11F014FEAD368043E29FA01F902
:1044E00004355B0115E595F801C02A78E9784FEAB3
:1044F0000C4C4CEA026CAA784CEA010C4CEA022CF7
:104500000CFA03F308F11B02D90E043E2CFA02FC4C
:1045100004355B01D8E6697895F800A095F803802A
:1045200095F802B0090441EA0A6141EA080A4AEA38
:104530000B2A0AFA03F300F11D014FEA5378043EF7
:104540002AFA01FA0435DB00ADE595F801902978E7
:10455000E8784FEA094949EA0169A97849EA000976
:1045600049EA012909FA03F308F11E004FEAD37C56
:10457000043E29FA00F904355B00C0E5687895F837
:1045800000A095F8039095F802B0000440EA0A6094
:1045900040EA090A4AEA0B2A0AFA03F301F11D006C
:1045A0004FEA5379043E2AFA00FA0435DB0048E565
:1045B000697895F800A095F8038095F802B0090491
:1045C00041EA0A6141EA080A4AEA0B2A0AFA03F3B5
:1045D00000F11B014FEA5378043E2AFA01FA043530
:1045E000DB00FAE4687895F800A095F8039095F858
:1045F00002B0000440EA0A6040EA090A4AEA0B2ACB
:104600000AFA03F301F11B004FEAD369043E2AFAC8
:1046100000FA04355B01AEE495F801C02A7895F8FC
:1046200003804FEA0C4C4CEA026CAA784CEA080C66
:104630004CEA022C0CFA03F301F11C022CFA02F1F1
:10464000043E4FEA537C0435DB0087E595F801C052
:10465000287895F803804FEA0C4C4CEA006CA87857
:104660004CEA080C4CEA002C0CFA03F302F11B0094
:10467000043EDA0E2CFA00FC04355B01C8E56978CB
:10468000287895F80380090441EA0061A87841EA96
:10469000080141EA002101FA03F302F11D0021FAA9
:1046A00000F2043ED90F04355B0084E595F801C0A3
:1046B000297895F803804FEA0C4C4CEA016CA978F4
:1046C0004CEA080C4CEA012C0CFA03F300F11B0134
:1046D000043E180F2CFA01FC04351B01C8E595F8BF
:1046E00001C02A7895F803804FEA0C4C4CEA026C22
:1046F000AA784CEA080C4CEA022C0CFA03F31F309F
:104700004FEAD378043E2CFA00FC04355B00B1E696
:1047100095F800E095F801C0EF784FEA0E6E4EEA8A
:104720000C4E95F802C04EEA070E03F11F074EEA41
:104730000C2303FA01F1043EFB400435FFF7BBB93B
:1047400095F801E095F800C0EB784FEA0E4E4EEA7E
:104750000C6E95F802C04EEA030E4EEA0C2E02F1E2
:104760001F030EFA01F1043E2EFA03FE0435FFF793
:1047700071B9697895F800E0EA78090441EA0E61B8
:1047800095F802E0114303F11F0241EA0E2303FAF8
:104790000CF1043ED3400435FFF7ECB995F800E086
:1047A00095F801C0EB784FEA0E6E4EEA0C4E95F884
:1047B00002C04EEA030E07F11F034EEA0C2707FA68
:1047C00001F1043EDF400435FFF7A5B9120602FAF5
:1047D00003F31F3022FA00F80135D80F5B00FFF712
:1047E0002DBA33463046FFF70DBB3346B446FFF7CC
:1047F000B3BA18060CF1180C00FA08F3013520FAC8
:104800000CF0FFF7FFBA09060CF11F0C01FA03F3D5
:10481000013521FA0CF1FFF73FBA000600FA03F365
:10482000143220FA02F90135D80D5B02FFF713BBF1
:1048300033463146B446FFF762BA33463146FFF796
:104840002BBA33463046B146FFF705BB33463046F8
:10485000B046FFF7F3B94FEA006C1F320CFA03F3CE
:1048600001352CFA02FCFFF777BA33463146B046E1
:10487000FFF79CBA4FEA0C6C0CFA03F302F120012B
:104880002CFA01FC0135D90F5B00FFF738BA12068C
:1048900002FA03F3173122FA01F80135190E1B024F
:1048A000FFF784BA33463146B146FFF701BB09062C
:1048B00001FA03F308F11B0C21FA0CFC0135D90EA7
:1048C0005B01FEE433463146B446FAE44FEA096937
:1048D00009FA03F31B3129FA01FA01354FEAD369CA
:1048E0005B01FFF745BB3346B146B246FFF740BB1D
:1048F0004FEA0C6C0CFA03F31B302CFA00FC013568
:10490000180F1B01B1E433463046B446ADE44FEA1C
:10491000096909FA03F31D3129FA01FA01354FEA51
:104920005379DB00FFF78ABB3346B146B246FFF747
:1049300085BB4FEA0C6C0CFA03F31B322CFA02FC19
:104940000135DA0E5B0160E433463246B4465CE47E
:104950004FEA086808FA03F31B3028FA00FA013519
:104960004FEA5378DB00FFF735BB3346B046B2461B
:10497000FFF730BB090601FA03F31D3221FA02F2F8
:104980000135D90F5B0013E43346314632460FE45C
:104990004FEA086808FA03F31D3028FA00FA0135D7
:1049A0004FEA5378DB00FFF77BBB3346B046B24695
:1049B000FFF776BB4FEA0C6C0CFA03F31C312CFAB0
:1049C00001F101354FEA537CDB00FFF7C4BB3346EE
:1049D000B4463146FFF7BFBB090601FA03F308F1FD
:1049E0001E084FEAD37C21FA08F901355B00FFF776
:1049F00083BB3346B446B146FFF77EBB4FEA086837
:104A000008FA03F31F3028FA00F901354FEAD3689A
:104A10005B01FFF77BBA3346B046B146FFF776BA83
:104A20004FEA096909FA03F31D3129FA01F9013541
:104A3000D90F5B00FFF73CBA3346B046B44616E5E3
:104A40004FEA0C6C0CFA03F31F304FEAD3782CFAC0
:104A500000FC01355B000AE531463346FFF787B8B5
:104A60004FEA0E6E1F320EFA01F101352EFA02FEE8
:104A7000FEF7EDBF3146B646FEF7E9BF3146374691
:104A8000FFF746B84FEA08681F3308FA0CF128FA16
:104A900003F30135FFF76BB84FEA0E6E1F330EFAC2
:104AA00001F12EFA03F30135FFF702B83146334620
:104AB000FEF7FEBF4FEA0E6E1F370EFA01F12EFA17
:104AC00007F70135FFF724B84FF0FF330993184675
:104AD000FEF744BFF8B500EB410500EB4114B5F813
:104AE0008C549DF8187084F8AC2205F07F06C5F34D
:104AF000C01584F8AD6284F8AE52BDF81C6084F82D
:104B0000AF32002584F8B172A4F8B26284F8C452BE
:104B100084F8C55213B9012384F8B032FCF79CFE27
:104B20000020F8BD70B54C01BDF8145012B1061943
:104B300086F8AC220219B2F8B262AE4200D05DB97A
:104B4000044494F8AF229A4202D00BB184F8AF32F9
:104B5000FCF782FE002070BDA2F8B252F0E700BF61
:104B6000B0F98C24002A03461DDAB0F98E24002AFD
:104B700024DAB0F99024002A23DAB0F99224002A2A
:104B800022DAB0F99424002A21DAB0F99624002A16
:104B900020DAB0F99824002A1FDAB0F99A24002A02
:104BA0001EDAFF2070470020024603EB42036FEA43
:104BB00041416FEA5141A3F88C147047012002462D
:104BC000F3E702200246F0E703200246EDE7042067
:104BD0000246EAE705200246E7E706200246E4E748
:104BE00007200246E1E700BF072907D800EB410094
:104BF000B0F88C34C3F30E03A0F88C340020704757
:104C000000F592620023C0F8903418465360936018
:104C1000704700BF08B501214FF0005001F050F976
:104C200000214FF00050BDE8084001F049B900BF35
:104C3000F0B491E888008E68084CCD6822683B4348
:104C4000334340F6FE712B43814022EA010203FA0E
:104C500000F010432060F0BC704700BF00740040BB
:104C60000023036043608360C360704741B9084913
:104C700001220B6802FA00F023EA00000860704786
:104C8000034A0123116803FA00F0084310607047DB
:104C90000074004049B9094900094B68012202FA31
:104CA00000F023EA000048607047044A0009516898
:104CB000012303FA00F0084350607047007400407D
:104CC000054A536818B923F003035360704743F053
:104CD00003035360704700BF0074004032B9064AB6
:104CE0001368814023EA010111607047024B1A6882
:104CF00081401143196070470074004082B0002267
:104D0000054B01920193019B083318440190019BCC
:104D1000196002B0704700BF0074004082B00022EA
:104D2000054B01920193019B143318440190019BA0
:104D3000196002B0704700BF007400400828044B9F
:104D40000CBF42EA012242EA0142C250704700BF52
:104D50002074004082B00022064B01920193019B17
:104D60002C3303EB90000190019B186880B202B0D5
:104D7000704700BF0074004049B909494FF48052A0
:104D80000B6802FA00F023EA000008607047044A4A
:104D90004FF48053116803FA00F008431060704725
:104DA0000074004032B9064A1368814023EA0101C9
:104DB00011607047024B1A688140114319607047B7
:104DC00000740040034B5B6B8140194214BF01200B
:104DD0000020704700740040014B814059637047C8
:104DE00000740040054B1A685B6B814011EA0300B8
:104DF00003D00A4214BF0120002070470074004015
:104E0000014B8140596370470074004038B500255C
:104E10000823C0F810520446C0F81452C0F850528B
:104E200080F88C52C0F81852C0F8545280F88D5255
:104E3000C0F81C52C0F8585280F88E52C0F8205268
:104E4000C0F85C5280F88F52C0F82452C0F860520B
:104E500080F89052C0F82852C0F8645280F89152FD
:104E6000C0F82C52C0F8685280F89252C0F8305204
:104E7000C0F86C5280F89352C0F83452C0F87052A7
:104E800080F89452C0F83852C0F8745280F89552A5
:104E9000C0F83C52C0F87852A0F8B23280F896526E
:104EA000C0F84052C0F87C5280F89752C0F8445283
:104EB000C0F8805280F89852C0F84852C0F8845226
:104EC00080F89952C0F84C52C0F8885280F89A5233
:104ED000FCF75CF82046FCF7D3FA2046FCF700FA12
:104EE00001212046FCF718FB2046FCF747FB204633
:104EF000FCF7BEFA284638BDD0F8CC301868C0F3AD
:104F00004140704708B5FCF789FC002008BD00BF90
:104F1000D0F81002704700BF4369986880B27047AC
:104F2000014491F89B027047943150F8210070477A
:104F3000014491F88C02704708B5FCF78DFC08BD60
:104F400010B500EB41134418002284F89B22C3F8EB
:104F5000C022FCF7FFFC10BD08B501214FF48040D2
:104F600000F0BAFF00214FF48040BDE8084000F097
:104F7000B3BF00BF014B1860704700BF003801404D
:104F800001F0FC0303F1804303F59C3301F00301BE
:104F900010B49A6889000F248C4022EA04029A60B7
:104FA0009A6810BC00FA01F111439960704700BF84
:104FB000014B1860704700BFDC002742014B1860AE
:104FC000704700BF00042742024B186AC0F300205C
:104FD000704700BF00380140FEE700BF08B50F482A
:104FE0000F4B984207D2C2431A4422F00302043204
:104FF0000C4912F06FFA0C480C494FF0000288423D
:10500000B8BF40F8042BFADBDFF82400016841F454
:1050100070010160BDE8084002F0C6BE000000203B
:10502000940D0020B0F00108940D0020600D0120C7
:1050300088ED00E0F8B505460F462F482F4C304E5E
:10504000082103F0EDF94FF48053236003E0236857
:105050005A1E2260EBB102213046FBF795FC002876
:10506000F5D0274847F080010646FBF753FC4FF484
:105070008053236003E023685A1E22604BB1012154
:105080003046FBF781FC0028F5D01D48FBF73EFCBD
:1050900001E004F021FE4FF48053194E236003E039
:1050A00023685A1E2260EBB102213046FBF76CFCEC
:1050B0000028F5D0124800210646FBF72BFC4FF4E0
:1050C0008053236003E023685A1E226053B10121FC
:1050D0003046FBF759FC0028F5D00948FBF716FCD1
:1050E000C0B202E004F0F8FDC0B228700821024806
:1050F000BDE8F84003F092B90010024048000020DB
:10510000003001402DE9F04F012189B080464FF475
:10511000805000F0A5FE0121084600F071FE01213B
:10512000102000F06DFE0121102000F069FE012129
:10513000102000F065FE052211466A486A4C03F013
:105140007DF905220621674808AD03F077F90522AD
:105150000721644803F072F9202345F81C3D61489B
:10516000624B0293294603F0D9F8294680235D4813
:10517000019303F0D3F8294640235A48019303F0E2
:10518000CDF85B48FBF764FA00264FF482730722E0
:1051900008274FF4007A03A95548ADF80E30ADF852
:1051A0001C20ADF80C60ADF81060ADF81260ADF8E1
:1051B0001460ADF81A60ADF816A0ADF81870FBF7E2
:1051C0007DFA01214A48FBF719FB4FF002092946F5
:1051D0004FF0010B47488DF80A6001978DF8099050
:1051E0008DF808B003F09AF83946424803F016F9F2
:1051F00029464048CDF808A0CDF804B003F08EF859
:1052000029463C48CDF8049003F088F839463948DF
:1052100098F8017098F8009098F8036098F8045096
:1052200098F80280DFF8C8A003F0FAF84FF4805332
:10523000236003E023685A1E2260E3B10221504636
:10524000FBF7A2FB0028F5D0294820218246FBF776
:1052500061FB4FF48053236003E023685A1E2260F1
:105260004BB101215046FBF78FFB0028F5D02048B9
:10527000FBF74CFB01E004F02FFD4FF48053DFF807
:1052800070A0236003E023685A1E22600BB3022142
:105290005046FBF779FB0028F5D047EA0901314376
:1052A0002943134848EA01010546FBF733FB4FF455
:1052B0008053236003E023685A1E22604BB1012112
:1052C0002846FBF761FB0028F5D00948FBF71EFBD9
:1052D00001E004F001FD0821064803F09FF809B041
:1052E000BDE8F08F000002404800002002020002EA
:1052F000003001400010024070B582B002AB0022C5
:1053000003F8012D044621211846FFF793FE237868
:1053100066789DF80720A1783148324C324D22F052
:105320002F02334313430B4308218DF8073003F05A
:1053300077F84FF48053236003E023685A1E2260FD
:10534000E3B102212846FBF71FFB0028F5D02648D1
:1053500021210546FBF7DEFA4FF48053236003E07A
:1053600023685A1E22604BB101212846FBF70CFB33
:105370000028F5D01C48FBF7C9FA01E004F0ACFCAA
:105380004FF480539DF80760174D236003E02368B6
:105390005A1E2260E3B102212846FBF7F5FA0028E5
:1053A000F5D0114831460546FBF7B4FA4FF4805367
:1053B000236003E023685A1E22604BB10121284676
:1053C000FBF7E2FA0028F5D00748FBF79FFA01E067
:1053D00004F082FC0821024803F020F802B070BDFE
:1053E00000100240480000200030014070B582B03B
:1053F00002AB002203F8012D044638211846FFF7BE
:1054000019FE61782378A2783048314C314D0B4336
:10541000134308218DF8073003F002F84FF480534E
:10542000236003E023685A1E2260E3B1022128466C
:10543000FBF7AAFA0028F5D0264838210546FBF7E5
:1054400069FA4FF48053236003E023685A1E2260F8
:105450004BB101212846FBF797FA0028F5D01D48EB
:10546000FBF754FA01E004F037FC4FF480539DF849
:105470000760184D236003E023685A1E2260E3B1E1
:1054800002212846FBF780FA0028F5D01148314662
:105490000546FBF73FFA4FF48053236003E023688F
:1054A0005A1E22604BB101212846FBF76DFA0028F5
:1054B000F5D00848FBF72AFA01E004F00DFC0821BA
:1054C000024802F0ABFF02B070BD00BF0010024006
:1054D000480000200030014070B582B0064620210F
:1054E0000DF10700FFF7A6FD9DF807303048314C5D
:1054F000314D23F040031E4308218DF8076002F070
:105500008FFF4FF48053236003E023685A1E22600C
:10551000E3B102212846FBF737FA0028F5D02648E8
:1055200020210546FBF7F6F94FF48053236003E092
:1055300023685A1E22604BB101212846FBF724FA4A
:105540000028F5D01C48FBF7E1F901E004F0C4FBAA
:105550004FF480539DF80760174D236003E02368E4
:105560005A1E2260E3B102212846FBF70DFA0028FB
:10557000F5D0114831460546FBF7CCF94FF480537E
:10558000236003E023685A1E22604BB101212846A4
:10559000FBF7FAF90028F5D00748FBF7B7F901E067
:1055A00004F09AFB0821024802F038FF02B070BDF7
:1055B00000100240480000200030014070B582B069
:1055C000064620210DF10700FFF734FD9DF8073056
:1055D0003048314C314D03F07F031E4308218DF8D4
:1055E000076002F01DFF4FF48053236003E023683F
:1055F0005A1E2260E3B102212846FBF7C5F90028B4
:10560000F5D0264820210546FBF784F94FF4805356
:10561000236003E023685A1E22604BB10121284613
:10562000FBF7B2F90028F5D01C48FBF76FF901E051
:1056300004F052FB4FF480539DF80760174D236030
:1056400003E023685A1E2260E3B102212846FBF7DB
:105650009BF90028F5D0114831460546FBF75AF969
:105660004FF48053236003E023685A1E22604BB13D
:1056700001212846FBF788F90028F5D00748FBF7F9
:1056800045F901E004F028FB0821024802F0C6FEBB
:1056900002B070BD00100240480000200030014000
:1056A00070B582B0064620210DF10700FFF7C2FC5D
:1056B0009DF807303048314C314D23F020031E4314
:1056C00008218DF8076002F0ABFE4FF48053236091
:1056D00003E023685A1E2260E3B102212846FBF74B
:1056E00053F90028F5D0264820210546FBF712F98A
:1056F0004FF48053236003E023685A1E22604BB1AD
:1057000001212846FBF740F90028F5D01C48FBF79B
:10571000FDF801E004F0E0FA4FF480539DF80760D3
:10572000174D236003E023685A1E2260E3B1022173
:105730002846FBF729F90028F5D0114831460546DF
:10574000FBF7E8F84FF48053236003E023685A1E08
:1057500022604BB101212846FBF716F90028F5D04D
:105760000748FBF7D3F801E004F0B6FA0821024835
:1057700002F054FE02B070BD00100240480000204C
:105780000030014070B582B021210DF10700FFF714
:1057900051FC9DF807303048304C314D43F0400308
:1057A00008218DF8073002F03BFE4FF48053236050
:1057B00003E023685A1E2260E3B102212846FBF76A
:1057C000E3F80028F5D0264821210546FBF7A2F88A
:1057D0004FF48053236003E023685A1E22604BB1CC
:1057E00001212846FBF7D0F80028F5D01C48FBF72C
:1057F0008DF801E004F070FA4FF480539DF80760D3
:10580000174D236003E023685A1E2260E3B1022192
:105810002846FBF7B9F80028F5D01148314605466F
:10582000FBF778F84FF48053236003E023685A1E97
:1058300022604BB101212846FBF7A6F80028F5D0DD
:105840000748FBF763F801E004F046FA0821024834
:1058500002F0E4FD02B070BD0010024048000020DC
:1058600000300140012A2DE9F8438846064688BFEA
:1058700041F040083248334C334D0821174602F0BE
:10588000CFFD4FF48053236004E023685A1E22604A
:10589000002B4FD002212846FBF776F80028F4D0E1
:1058A000294841460546FBF735F84FF480532360FD
:1058B00004E023685A1E2260002B3BD001212846B9
:1058C000FBF762F80028F4D01F48FBF71FF85FB31E
:1058D000013F1D4D16FA87F74FF48058013E16F828
:1058E000019FC4F8008003E023685A1E226023B39E
:1058F00002212846FBF748F80028F5D049462846FB
:10590000FBF708F8C4F8008003E023685A1E226001
:105910009BB101212846FBF737F80028F5D028462F
:10592000FAF7F4FFB742DAD108210548BDE8F84399
:1059300002F074BD04F0D0F9C9E704F0CDF9F1E745
:10594000001002404800002000300140012A2DE9EB
:10595000F0418CBF41F0C00841F0800806460821A4
:105960003348344C344D174602F05AFD4FF48053FF
:10597000236004E023685A1E2260002B50D00221CD
:105980002846FBF701F80028F4D02B48414605468D
:10599000FAF7C0FF4FF48053236004E023685A1ED7
:1059A0002260002B3CD001212846FAF7EDFF0028A9
:1059B000F4D02148FAF7AAFF67B3013FBFB201371D
:1059C0001D4D37444FF48058C4F8008003E023682D
:1059D0005A1E22603BB302212846FAF7D5FF002861
:1059E000F5D000212846FAF795FFC4F8008003E0BF
:1059F00023685A1E2260B3B101212846FAF7C4FF7A
:105A00000028F5D02846FAF781FFC0B206F8010B4E
:105A1000BE42D9D108210648BDE8F04102F0FEBCE3
:105A200004F05AF9C8E704F057F9C0B2EEE700BF36
:105A30000010024048000020003001402DE9F043F2
:105A400085B0202181460DF10700FFF7F3FA474C9E
:105A50004748484D082102F0E3FC4FF4805323608F
:105A600003E023685A1E2260E3B102212846FAF7B8
:105A70008BFF0028F5D03F48E9210546FAF74AFF99
:105A80004FF48053236003E023685A1E22604BB119
:105A900001212846FAF778FF0028F5D03548FAF7B3
:105AA00035FF01E004F018F9324D02AE0DF10E0899
:105AB0004FF48057276004E023685A1E2260002BB1
:105AC0003BD002212846FAF75FFF0028F4D00021DE
:105AD0002846FAF71FFF276003E023685A1E22605A
